:020000040800F2
:1000000000500020DD340008B9320008C132000879
:10001000C9320008D1320008D932000800000000BF
:10002000000000000000000000000000E1320008B5
:10003000ED32000800000000F93200080533000826
:100040002535000825350008253500082535000828
:100050002535000825350008253500082535000818
:10006000253500082535000825350008113300081E
:1000700025350008253500082535000825350008F8
:1000800025350008253500082533000825350008EA
:1000900025350008253500082535000825350008D8
:1000A00025350008253500082535000825350008C8
:1000B00025350008393300082535000825350008A6
:1000C00025350008253500082535000825350008A8
:1000D0002535000825350008253500082535000898
:1000E00025350008253500082535000800000000EA
:1000F0000000000000000000000000000000000000
:0C01000000000000000000005FF808F1A3
:1001100010B5054C237833B9044B13B10448AFF341
:1001200000800123237010BD280200200000000081
:100130004CAE000808B5034B1BB103490348AFF3AD
:10014000008008BD000000002C0200204CAE00081A
:10015000034613F8012B002AFBD1181A0138704707
:1001600081F0004102E000BF83F0004330B54FEA68
:1001700041044FEA430594EA050F08BF90EA020FD5
:100180001FBF54EA000C55EA020C7FEA645C7FEA68
:10019000655C00F0E2804FEA5454D4EB5555B8BF8B
:1001A0006D420CDD2C4480EA020281EA030382EAFC
:1001B000000083EA010180EA020281EA0303362D8E
:1001C00088BF30BD11F0004F4FEA01314FF4801C61
:1001D0004CEA113102D0404261EB410113F0004F73
:1001E0004FEA03334CEA133302D0524263EB43032A
:1001F00094EA050F00F0A780A4F10104D5F1200EC8
:100200000DDB02FA0EFC22FA05F2801841F1000122
:1002100003FA0EF2801843FA05F359410EE0A5F1F6
:1002200020050EF1200E012A03FA0EFC28BF4CF027
:10023000020C43FA05F3C01851EBE37101F00045DD
:1002400007D54FF0000EDCF1000C7EEB00006EEBEA
:100250000101B1F5801F1BD3B1F5001F0CD3490874
:100260005FEA30004FEA3C0C04F101044FEA4452CB
:1002700012F5800F80F09A80BCF1004F08BF5FEA52
:10028000500C50F1000041EB045141EA050130BD32
:100290005FEA4C0C404141EB0101013C28BFB1F544
:1002A000801FE9D291F0000F04BF01460020B1FA8F
:1002B00081F308BF2033A3F10B03B3F120020CDA62
:1002C0000C3208DD02F1140CC2F10C0201FA0CF040
:1002D00021FA02F10CE002F11402D8BFC2F1200CA5
:1002E00001FA02F120FA0CFCDCBF41EA0C0190405B
:1002F000E41AA2BF01EB0451294330BD6FEA0404A4
:100300001F3C1CDA0C340EDC04F11404C4F120028E
:1003100020FA04F001FA02F340EA030021FA04F3A0
:1003200045EA030130BDC4F10C04C4F1200220FAF7
:1003300002F001FA04F340EA0300294630BD21FA35
:1003400004F0294630BD94F0000F83F4801306BFFB
:1003500081F480110134013D4EE77FEA645C18BFEF
:100360007FEA655C29D094EA050F08BF90EA020F86
:1003700005D054EA000C04BF1946104630BD91EA7E
:10038000030F1EBF0021002030BD5FEA545C05D181
:100390004000494128BF41F0004130BD14F58004C0
:1003A0003CBF01F5801130BD01F0004545F0FE4134
:1003B00041F470014FF0000030BD7FEA645C1ABF69
:1003C000194610467FEA655C1CBF0B46024650EAA0
:1003D000013406BF52EA033591EA030F41F40021CC
:1003E00030BD00BF90F0000F04BF0021704730B552
:1003F0004FF4806404F132044FF000054FF0000127
:1004000050E700BF90F0000F04BF0021704730B5E7
:100410004FF4806404F1320410F0004548BF4042BC
:100420004FF000013EE700BF42004FEAE2014FEA11
:1004300031014FEA02701FBF12F07F4393F07F4FEC
:1004400081F06051704732F07F4208BF704793F0EF
:100450007F4F04BF41F40021704730B54FF4607402
:1004600001F0004521F000411CE700BF50EA010205
:1004700008BF704730B54FF000050AE050EA0102AE
:1004800008BF704730B511F0004502D5404261EB1E
:1004900041014FF4806404F132045FEA915C3FF45F
:1004A000D8AE4FF003025FEADC0C18BF03325FEAFC
:1004B000DC0C18BF033202EBDC02C2F1200300FAAD
:1004C00003FC20FA02F001FA03FE40EA0E0021FAD2
:1004D00002F11444BDE600BF70B54FF0FF0C4CF4C0
:1004E000E06C1CEA11541DBF1CEA135594EA0C0F72
:1004F00095EA0C0F00F0DEF82C4481EA030621EAAD
:100500004C5123EA4C5350EA013518BF52EA0335E7
:1005100041F4801143F4801338D0A0FB02CE4FF099
:100520000005E1FB02E506F00042E0FB03E54FF0C9
:100530000006E1FB03569CF0000F18BF4EF0010EC1
:10054000A4F1FF04B6F5007F64F5407404D25FEABD
:100550004E0E6D4146EB060642EAC62141EA555170
:100560004FEAC52040EA5E504FEACE2EB4F1FD0CB2
:1005700088BFBCF5E06F1ED8BEF1004F08BF5FEA30
:10058000500E50F1000041EB045170BD06F00046E2
:1005900046EA010140EA020081EA0301B4EB5C048F
:1005A000C2BFD4EB0C0541EA045170BD41F4801187
:1005B0004FF0000E013C00F3AB8014F1360FDEBFAC
:1005C000002001F0004170BDC4F10004203C35DA88
:1005D0000C341BDC04F11404C4F1200500FA05F30B
:1005E00020FA04F001FA05F240EA020001F00042AC
:1005F00021F0004110EBD37021FA04F642EB060122
:100600005EEA430E08BF20EAD37070BDC4F10C044B
:10061000C4F1200500FA04F320FA05F001FA04F20F
:1006200040EA020001F0004110EBD37041F10001FB
:100630005EEA430E08BF20EAD37070BDC4F1200506
:1006400000FA05F24EEA020E20FA04F301FA05F26E
:1006500043EA020321FA04F001F0004121FA04F216
:1006600020EA020000EBD3705EEA430E08BF20EAE6
:10067000D37070BD94F0000F0FD101F00046400020
:1006800041EB010111F4801F08BF013CF7D041EAA2
:10069000060195F0000F18BF704703F000465200A6
:1006A00043EB030313F4801F08BF013DF7D043EA77
:1006B0000603704794EA0C0F0CEA135518BF95EA2D
:1006C0000C0F0CD050EA410618BF52EA4306D1D1B4
:1006D00081EA030101F000414FF0000070BD50EAD3
:1006E000410606BF1046194652EA430619D094EA5D
:1006F0000C0F02D150EA013613D195EA0C0F05D147
:1007000052EA03361CBF104619460AD181EA03019A
:1007100001F0004141F0FE4141F470014FF0000052
:1007200070BD41F0FE4141F4780170BD70B54FF0ED
:10073000FF0C4CF4E06C1CEA11541DBF1CEA13556D
:1007400094EA0C0F95EA0C0F00F0A7F8A4EB05044F
:1007500081EA030E52EA03354FEA013100F0888046
:100760004FEA03334FF0805545EA131343EA12630F
:100770004FEA022245EA111545EA10654FEA0026C4
:100780000EF000419D4208BF964244F1FD0404F57D
:10079000407402D25B084FEA3202B61A65EB0305D9
:1007A0005B084FEA32024FF480104FF4002CB6EB96
:1007B000020E75EB030E22BFB61A754640EA0C0016
:1007C0005B084FEA3202B6EB020E75EB030E22BF56
:1007D000B61A754640EA5C005B084FEA3202B6EB97
:1007E000020E75EB030E22BFB61A754640EA9C0056
:1007F0005B084FEA3202B6EB020E75EB030E22BF26
:10080000B61A754640EADC0055EA060E18D04FEAE3
:10081000051545EA16754FEA06164FEAC30343EA83
:1008200052734FEAC2025FEA1C1CC0D111F4801F50
:100830000BD141EA00014FF000004FF0004CB6E749
:1008400011F4801F04BF01430020B4F1FD0C88BFE8
:10085000BCF5E06F3FF6AFAEB5EB030C04BFB6EBF3
:10086000020C5FEA500C50F1000041EB045170BDE6
:100870000EF0004E4EEA113114EB5C04C2BFD4EB13
:100880000C0541EA045170BD41F480114FF0000E97
:10089000013C90E645EA060E8DE60CEA135594EA13
:1008A0000C0F08BF95EA0C0F3FF43BAF94EA0C0F16
:1008B0000AD150EA01347FF434AF95EA0C0F7FF48B
:1008C00025AF104619462CE795EA0C0F06D152EADF
:1008D00003353FF4FDAE1046194622E750EA4106C3
:1008E00018BF52EA43067FF4C5AE50EA41047FF4D4
:1008F0000DAF52EA43057FF4EBAE12E74FF0FF3C39
:1009000006E000BF4FF0010C02E000BF4FF0010C09
:100910004DF804CD4FEA410C7FEA6C5C4FEA430C82
:1009200018BF7FEA6C5C1BD001B050EA410C0CBFD1
:1009300052EA430C91EA030F02BF90EA020F002033
:10094000704710F1000F91EA030F58BF994208BF9A
:1009500090422CBFD8176FEAE37040F00100704757
:100960004FEA410C7FEA6C5C02D150EA013C07D1AE
:100970004FEA430C7FEA6C5CD6D152EA033CD3D0F9
:100980005DF8040B704700BF8446104662468C46F3
:100990001946634600E000BF01B5FFF7B7FF002826
:1009A00048BF10F1000F01BD4DF808EDFFF7F4FF4F
:1009B0000CBF012000205DF808FB00BF4DF808EDDA
:1009C000FFF7EAFF34BF012000205DF808FB00BFFD
:1009D0004DF808EDFFF7E0FF94BF012000205DF81F
:1009E00008FB00BF4DF808EDFFF7CEFF94BF0120D4
:1009F00000205DF808FB00BF4DF808EDFFF7C4FFCD
:100A000034BF012000205DF808FB00BF4FEA410C15
:100A10007FEA6C5C02D150EA013C0AD14FEA430CF8
:100A20007FEA6C5C02D152EA033C02D14FF0000035
:100A300070474FF0010070474FEA410212F5001273
:100A400015D211D56FF47873B3EB625212D94FEA15
:100A5000C12343F0004343EA505311F0004F23FAFF
:100A600002F018BF404270474FF00000704750EA54
:100A7000013005D111F0004008BF6FF00040704711
:100A80004FF00000704700BF4A0011D212F500126B
:100A900011D20DD56FF47873B3EB62520ED44FEAD6
:100AA000C12343F0004343EA505323FA02F0704756
:100AB0004FF00000704750EA013002D14FF0FF3094
:100AC00070474FF0000070474FEA4102B2F1E04337
:100AD00024BFB3F5001CDCF1FE5C0DD901F0004C25
:100AE0004FEAC0024CEA5070B2F1004F40EB830075
:100AF00008BF20F00100704711F0804F21D113F1A1
:100B00003872BCBF01F00040704741F480114FEAD9
:100B10005252C2F11802C2F1200C10FA0CF320FA62
:100B200002F018BF40F001004FEAC1234FEAD3237F
:100B300003FA0CFC40EA0C0023FA02F34FEA4303E9
:100B4000CCE77FEA625307D150EA01331EBF4FF072
:100B5000FE4040F44000704701F0004040F0FE408D
:100B600040F40000704700BF80F0004002E000BF8A
:100B700081F0004142001FBF5FEA410392EA030F88
:100B80007FEA226C7FEA236C6AD04FEA1262D2EBD2
:100B90001363C1BFD218414048404140B8BF5B42D7
:100BA000192B88BF704710F0004F40F4000020F070
:100BB0007F4018BF404211F0004F41F4000121F086
:100BC0007F4118BF494292EA030F3FD0A2F10102D0
:100BD00041FA03FC10EB0C00C3F1200301FA03F10E
:100BE00000F0004302D5494260EB4000B0F5000F31
:100BF00013D3B0F1807F06D340084FEA310102F1F0
:100C00000102FE2A51D2B1F1004F40EBC25008BFA1
:100C100020F0010040EA03007047490040EB00006B
:100C2000013A28BFB0F5000FEDD2B0FA80FCACF16C
:100C3000080CB2EB0C0200FA0CF0AABF00EBC25099
:100C400052421843BCBFD0401843704792F0000F87
:100C500081F4000106BF80F400000132013BB5E7DA
:100C60004FEA41037FEA226C18BF7FEA236C21D050
:100C700092EA030F04D092F0000F08BF08467047B5
:100C800090EA010F1CBF0020704712F07F4F04D183
:100C9000400028BF40F00040704712F100723CBF96
:100CA00000F50000704700F0004343F0FE4040F4C0
:100CB000000070477FEA226216BF08467FEA23637E
:100CC0000146420206BF5FEA412390EA010F40F469
:100CD000800070474FF0000304E000BF10F00043B5
:100CE00048BF40425FEA000C08BF704743F096439C
:100CF00001464FF000001CE050EA010208BF7047B7
:100D00004FF000030AE000BF50EA010208BF70473D
:100D100011F0004302D5404261EB41015FEA010C52
:100D200002BF84460146002043F0B64308BFA3F14A
:100D30008053A3F50003BCFA8CF2083AA3EBC2532C
:100D400010DB01FA02FC634400FA02FCC2F120024B
:100D5000BCF1004F20FA02F243EB020008BF20F082
:100D60000100704702F1200201FA02FCC2F12002E8
:100D700050EA4C0021FA02F243EB020008BF20EADD
:100D8000DC7070474FF0FF0C1CEAD0521EBF1CEA0B
:100D9000D15392EA0C0F93EA0C0F6FD01A4480EAF9
:100DA000010C400218BF5FEA41211ED04FF00063E2
:100DB00043EA501043EA5111A0FB01310CF000400E
:100DC000B1F5000F3EBF490041EAD3715B0040EA34
:100DD000010062F17F02FD2A1DD8B3F1004F40EB04
:100DE000C25008BF20F00100704790F0000F0CF0D7
:100DF000004C08BF49024CEA502040EA51207F3A9B
:100E0000C2BFD2F1FF0340EAC250704740F4000075
:100E10004FF00003013A5DDC12F1190FDCBF00F066
:100E200000407047C2F10002410021FA02F1C2F114
:100E3000200200FA02FC5FEA310040F1000053EAB0
:100E40004C0308BF20EADC70704792F0000F00F0FE
:100E5000004C02BF400010F4000F013AF9D040EA04
:100E60000C0093F0000F01F0004C02BF490011F498
:100E7000000F013BF9D041EA0C018FE70CEAD15396
:100E800092EA0C0F18BF93EA0C0F0AD030F0004C16
:100E900018BF31F0004CD8D180EA010000F00040CA
:100EA000704790F0000F17BF90F0004F084691F088
:100EB000000F91F0004F14D092EA0C0F01D14202C2
:100EC0000FD193EA0C0F03D14B0218BF084608D18B
:100ED00080EA010000F0004040F0FE4040F40000D5
:100EE000704740F0FE4040F4400070474FF0FF0C68
:100EF0001CEAD0521EBF1CEAD15392EA0C0F93EAAF
:100F00000C0F69D0A2EB030280EA010C49024FEA00
:100F1000402037D04FF0805343EA111143EA1013B9
:100F20000CF000408B4238BF5B0042F17D024FF471
:100F3000000C8B4224BF5B1A40EA0C00B3EB510F4C
:100F400024BFA3EB510340EA5C00B3EB910F24BF35
:100F5000A3EB910340EA9C00B3EBD10F24BFA3EBBA
:100F6000D10340EADC001B0118BF5FEA1C1CE0D182
:100F7000FD2A3FF650AF8B4240EBC25008BF20F035
:100F8000010070470CF0004C4CEA50207F32C2BF89
:100F9000D2F1FF0340EAC250704740F400004FF026
:100FA0000003013A37E792F0000F00F0004C02BF57
:100FB000400010F4000F013AF9D040EA0C0093F021
:100FC000000F01F0004C02BF490011F4000F013B7B
:100FD000F9D041EA0C0195E70CEAD15392EA0C0FE3
:100FE00008D142027FF47DAF93EA0C0F7FF470AF1B
:100FF000084676E793EA0C0F04D14B023FF44CAF5E
:1010000008466EE730F0004C18BF31F0004CCAD1F2
:1010100030F000427FF45CAF31F000437FF43CAF2E
:101020005FE700BF4FF0FF3C06E000BF4FF0010C50
:1010300002E000BF4FF0010C4DF804CD4FEA400232
:101040004FEA41037FEA226C18BF7FEA236C11D07C
:1010500001B052EA530C18BF90EA010F58BFB2EB2F
:10106000030088BFC81738BF6FEAE17018BF40F0AF
:10107000010070477FEA226C02D15FEA402C05D163
:101080007FEA236CE4D15FEA412CE1D05DF8040BE8
:10109000704700BF844608466146FFE70FB5FFF77B
:1010A000C9FF002848BF10F1000F0FBD4DF808ED33
:1010B000FFF7F4FF0CBF012000205DF808FB00BF24
:1010C0004DF808EDFFF7EAFF34BF012000205DF87E
:1010D00008FB00BF4DF808EDFFF7E0FF94BF0120CB
:1010E00000205DF808FB00BF4DF808EDFFF7D2FFC8
:1010F00094BF012000205DF808FB00BF4DF808ED0B
:10110000FFF7C8FF34BF012000205DF808FB00BFD7
:1011100042000ED2B2F1FE4F0BD34FF09E03B3EB61
:10112000126209D44FEA002343F0004323FA02F08D
:1011300070474FF00000704712F1610F01D1420279
:1011400002D14FF0FF3070474FF00000704700BFF2
:101150007BB972B90029BEBF00204FF0004106E004
:1011600008BF00281CBF6FF000414FF0FF3000F0B7
:10117000F5B9ADF1080C6DE904CE002909DB002BAF
:101180001ADB00F06BF8DDF804E0DDE9022304B0BF
:101190007047404261EB4101002B1BDB00F05EF821
:1011A000DDF804E0DDE9022304B0404261EB4101D7
:1011B000524263EB43037047524263EB430300F038
:1011C0004DF8DDF804E0DDE9022304B0404261EBB4
:1011D00041017047524263EB430300F03FF8DDF8F2
:1011E00004E0DDE9022304B0524263EB430370479D
:1011F00038B50022002304460D46FFF7DFFB28B96F
:1012000020462946BDE8384000F00AB8204605F1DE
:10121000004100F005F8404261EB410138BD00BFDC
:10122000D0B500220B4B06460F46FFF755F9FFF7E6
:101230002BFC0446FFF7D6F80022074BFFF74CF9CA
:1012400002460B4630463946FEF78EFFFFF71CFC80
:101250002146D0BD0000F03D0000F0412DE9F047EF
:10126000089D8E4604468846002B4AD18A4217467E
:1012700062D9B2FA82F64EB1C6F1200301FA06F83D
:1012800020FA03F3B74043EA0808B4404FEA174E88
:10129000B8FBFEF11FFA87FC0EFB118801FB0CF274
:1012A000230C43EA08439A4209D9FB1801F1FF30A5
:1012B00080F0EB809A4240F2E88002393B449A1A6F
:1012C000B2FBFEF00EFB102200FB0CFCA3B243EAC3
:1012D00002439C4509D9FB1800F1FF3280F0D7800A
:1012E0009C4540F2D4803B44023840EA0140002152
:1012F000A3EB0C031DB10022F340C5E90032BDE8A9
:10130000F0878B4205D90DB1C5E9000100210846DF
:10131000F5E7B3FA83F1002946D1734502D382423F
:1013200000F20881841A6EEB030201209046002D22
:10133000E5D0C5E90048E2E7002A00F09180B2FA62
:1013400082F6002E40F0A5808A1A0121030C4FEA94
:10135000174E80B2BCB2B2FBFEFC0EFB1C2243EA6D
:10136000024304FB0CF29A4207D9FB180CF1FF3838
:1013700002D29A4200F2E380C4469B1AB3FBFEF20B
:101380000EFB123302FB04F440EA03439C4207D9EC
:10139000FB1802F1FF3002D29C4200F2CD800246DF
:1013A0001B1B42EA0C40A5E7C1F120068B4022FA44
:1013B00006F71F432EFA06FA4FEA1749BAFBF9F867
:1013C0000EFA01FE20FA06F309FB18AA1FFA87FCA1
:1013D00043EA0E0300FA01FE08FB0CF01C0C44EA81
:1013E0000A44A04202FA01F20AD93C1908F1FF3A74
:1013F00080F09E80A04240F29B80A8F102083C440D
:10140000241A98B2B4FBF9F309FB134403FB0CFC58
:1014100040EA0444A44509D93C1903F1FF3080F0A7
:101420008580A44540F28280023B3C4443EA084068
:10143000A4EB0C04A0FB028C64454346E14664D354
:1014400061D05DB1BEEB030264EB090404FA06F659
:1014500022FA01F31E43CC40C5E9006400214EE7A7
:10146000B1FBF2FC010C41EA0E4180B240EA0142BC
:101470003B46B1FBF7F138463C46B846BE4620260F
:10148000A2EB080241EA0C4165E7014617E7104666
:101490002BE7C6F120012EFA01FCB7400EFA06FE3A
:1014A00020FA01F141EA0E014FEA174EBCFBFEF8AB
:1014B000BCB20EFB18CC08FB04F90A0C42EA0C4241
:1014C000B04091454FEA104380B23ED9BA1808F1B6
:1014D000FF3C01D291451FD8A2EB0902B2FBFEF9F5
:1014E00009FB04F80EFB192A8AB242EA0A42424575
:1014F00029D2BA1809F1FF31C2D24245C0D2A9F1AE
:1015000002013A44BCE7C6459BD2B8EB02036CEB40
:10151000070C0138E14694E7A7EB09094A44B2FBFE
:10152000FEF9A8F1020C09FB04F8DBE703467DE7AE
:10153000D04665E70846FAE63B44023A30E7ACF1AC
:10154000020C3B4419E749469AE7A2EB0902B2FBB9
:10155000FEF9C44609FB04F8C4E700BF704700BFAA
:1015600080B584B000AF78600D4B5B68FB6003F022
:1015700063FD03460B4AA2FB03239A0C7B6802FB24
:1015800003F3BB6000E000BF054B5A68FB68D31A49
:10159000BA689A42F7D800BF00BF1037BD4680BD79
:1015A000001000E083DE1B4380B400AF094BDB6812
:1015B000084A43F08073D360074B00225A60064B01
:1015C0001B68054A43F00103136000BFBD4680BCA1
:1015D000704700BFF0ED00E0001000E080B584B07F
:1015E00000AFF860B9603B601346FB80FB68BA68E7
:1015F0001A60FB68FA889A80FB683A689A60FB6810
:101600003A8B9A81FB6800221A61FB684FF07E5288
:101610005A61FB6880221A76FB689868FB689B8990
:101620000022194603F02FF900BF1037BD4680BDD8
:1016300080B586B000AF786001F0CEFF034603F5B9
:101640007A73FB6007E001F0C7FF0246FB68934234
:1016500001D2002381E07B681A687B689B88194669
:10166000104603F0F9F80346012BECD000237B6110
:101670000023FB7429E07B6898687B689B890122C2
:10168000194603F000F90120FFF76AFF7B695B0050
:101690007B617B6898687B689B890022194603F010
:1016A000F2F80120FFF75CFF7B681A687B689B8873
:1016B0001946104603F0D0F80346012B02D17B698E
:1016C00001337B61FB7C0133FB74FB7C172BD2D98C
:1016D0000123BB747B681B7E802B02D10123BB746A
:1016E0000CE07B681B7E402B02D10323BB7405E01A
:1016F0007B681B7E202B01D10223BB7400237B74EB
:1017000018E07B6898687B689B890122194603F082
:10171000BAF80120FFF724FF7B6898687B689B89F3
:101720000022194603F0AFF80120FFF719FF7B7C78
:1017300001337B747A7CBB7C9A42E2D37B6903F4ED
:101740000003002B04D07B6943F07F437B6103E0FF
:101750007B6923F07F437B617B6918461837BD4660
:1017600080BD2DE9B04F86B000AF78600B46FB70AE
:10177000FB78002B01D10123FB704FF000024FF0EA
:101780000003C7E904230023FB7314E07868FFF724
:101790004FFF0346DA171C461546D7E9042312EB20
:1017A000040843EB0509C7E90489002001F01EFF86
:1017B000FB7B0133FB73FA7BFB789A42E6D3FB7821
:1017C00000229A46934652465B46D7E90401FFF74A
:1017D000BFFC02460B46134618461837BD46BDE807
:1017E000B08F80B584B000AF78600B46FB70FB789B
:1017F00019467868FFF7B5FFF8607B68FA681A61E8
:1018000000BF1037BD4680BD80B582B000AF7860A4
:1018100039604FF000013868FFF748FC0346002BA1
:1018200003D17B683A685A6100E000BF0837BD46C3
:1018300080BD80B483B000AF786039607B683A685F
:101840001A6100BF0C37BD4680BC704780B483B0BE
:1018500000AF78607B681B6918460C37BD4680BCBA
:10186000704790B585B000AF78600B46FB70FB7891
:1018700019467868FFF775FFF860F868FFF72EFAE9
:1018800004467B681B691846FFF728FA0346194689
:101890002046FFF76DF903461A467B685B691946D7
:1018A0001046FFF723FB0346BB60BB68184614379E
:1018B000BD4690BD80B582B000AF78607868FEF715
:1018C00047FC03469AB24FF0FF337968034804F0AF
:1018D00090FD00BF0837BD4680BD00BF200400203A
:1018E00080B598B002AFF860B9603B601346FB80EA
:1018F000F868FA88B7F8603000933B68B968FFF77A
:101900006DFEFFF751FEFB687A6EDA61FB68BA6E16
:101910001A62FB68244A5A62FB68244A9A62FB688E
:10192000234ADA62FB68234A1A63FA68FB68DB69B8
:1019300019461046FFF768FFFA68FB681B6A1946EC
:101940001046FFF776FF1C48FFF7B4FFFB680A213B
:101950001846FFF786FF7865786DFEF765FD02464D
:101960000B4607F11400154905F03EFE07F114037C
:101970001846FFF79FFF7B6D23F000434FF07E5129
:101980001846FFF7BBFB0346002B05D00C48FFF7BA
:1019900091FFF86800F018F80A48FFF78BFF00BFC6
:1019A0005837BD4680BD00BFCDCC4C3E0000C04086
:1019B00000007A440000FA4468AE000894AE0008C3
:1019C000BCAE0008FCAE000880B582B000AF786005
:1019D0007B680A211846FFF704FF7B681846FFF76B
:1019E00035FF02467B681A6200BF0837BD4680BDDE
:1019F00080B584B000AF78600B46FB707B68FA78E6
:101A000011461846FFF72DFFF8604FF00001F86807
:101A1000FFF76AFB0346002B09D03049F868FFF74F
:101A200059FB0346002B02D04FF00003FB604FF040
:101A30000001F868FFF744FB0346002B02D04FF08B
:101A40000003FB607B68DA6A7B689B6A1946104674
:101A5000FFF78EF803461946F868FFF745FB034683
:101A6000002B13D07B68DA6A7B689B6A19461046A4
:101A7000FFF780F803461946F868FFF72BFB03468B
:101A8000002B03D07B68DB6AFB6022E07B681A6B6B
:101A90007B689B6A19461046FFF76AF803461946A9
:101AA000F868FFF721FB0346002B12D07B681A6B06
:101AB0007B689B6A19461046FFF75CF80346194697
:101AC000F868FFF707FB0346002B02D07B681B6B0F
:101AD000FB60FB6818461037BD4680BD0000204102
:101AE00080B500AF00220121044802F0CCFE0122A3
:101AF0000221024802F0C7FE00BF80BD000C014079
:101B000080B500AF00222021044802F0BCFE012273
:101B10004021024802F0B7FE00BF80BD000801402E
:101B200080B586B000AF474B1B685B6AFB60464BD5
:101B30001B685B6ABB60454B1B68FA68D31A7B6104
:101B4000434B1B68BA68D31A3B617B69B3F5004FFE
:101B500003DB7B69A3F580337B617B6913F5004F61
:101B600003DA7B6903F580337B613B69B3F5004F92
:101B700003DB3B69A3F580333B613B6913F5004F01
:101B800003DA3B6903F580333B61324B1A687B69AA
:101B90001344304A1360304B1A683B6913442E4A91
:101BA00013602A4AFB681360294ABB6813607B698B
:101BB0005B421846FFF792F8034628491846FFF79C
:101BC00095F903461A46264B1B6819461046FFF73F
:101BD0008DF903467B603869FFF780F803461F499B
:101BE0001846FFF783F903461A461D4B1B68194632
:101BF0001046FFF77BF903463B601A497868FFF708
:101C0000C1F803461A46184B1A6016493868FFF7A0
:101C1000B9F803461A46154B1A6015497868FFF75C
:101C2000B1F803461A46134B1A6011493868FFF79A
:101C3000A9F803461A46104B1A6000BF1837BD4674
:101C400080BD00BF0003002090030020D0040020CE
:101C5000D4040020E0040020E40400200000A54497
:101C60000000002000007042D8040020DC040020A6
:101C7000AF1A513EC8040020CC04002080B483B0C9
:101C800000AF78607B681B68104A934218D1104BF4
:101C90001B889AB20F4B1A800D4B5B889AB20E4B81
:101CA0001A800B4B9B889AB20C4B1A80084BDB882E
:101CB0009AB20B4B1A80064B1B899AB2094B1A80B9
:101CC00000BF0C37BD4680BC704700BF00240140F8
:101CD0009C040020A6040020A8040020AA040020E0
:101CE000AC040020AE04002080B400AF0E4B1B8873
:101CF0009AB20E4B1A800E4B1B889AB20B4B5A802D
:101D00000C4B1B889AB2094B9A800B4B1B889AB2DA
:101D1000064BDA80094B1B889AB2044B1A8100BF2C
:101D2000BD4680BC704700BFA6040020B004002060
:101D3000A8040020AA040020AC040020AE04002067
:101D400080B483B000AF314B1B889AB2304B1A80FD
:101D5000304B1B889AB22E4B5A802F4B1B889AB25D
:101D60002B4B9A802D4B1B889AB2294BDA802C4B37
:101D70001B889AB2264B1A8100237B603DE0244ADF
:101D80007B6832F813303B60264A7B6832F81330A8
:101D90001A463B68934204DA224A7B6832F81330D1
:101DA0003B60214A7B6832F813301A463B68934205
:101DB00004DD1D4A7B6832F813303B60194A7B68AA
:101DC00032F813301A463B689B1A4FF47A7203FBC1
:101DD00002F215497B6831F81330184611497B68C7
:101DE00031F81330C31A92FBF3F399B20F4A7B68B0
:101DF00022F813107B6801337B607B68042BBEDD07
:101E000000BF00BF0C37BD4680BC7047A604002051
:101E1000BC040020A8040020AA040020AC04002078
:101E2000AE0400200400002010000020E804002080
:101E300080B487B000AF00237B6100233B611A4A66
:101E40003B4607CA03C31A800023FB601AE0174A07
:101E5000FB6832F813301A46FB685B0018333B44CA
:101E600033F9183C02FB03F37A6913447B610F4A90
:101E7000FB6832F813301A463B6913443B61FB6838
:101E80000133FB60FB68042BE1DD3B69002B01D1D2
:101E9000002304E07A693B6992FBF3F31BB2184616
:101EA0001C37BD4680BC704734AF0008E8040020F2
:101EB00080B5CEB000AF3248FFF7FCFC0023C7F876
:101EC000343113E02F4AD7F8343132F813301A4640
:101ED0003B462D49184605F087FB3B461846FFF761
:101EE000E9FCD7F834310133C7F83431D7F834314D
:101EF000042BE7DD2548FFF7DDFC2548FFF7DAFC7A
:101F00000023C7F8303113E0224AD7F8303132F8D5
:101F100013301A463B461C49184605F065FB3B4604
:101F20001846FFF7C7FCD7F830310133C7F8303116
:101F3000D7F83031042BE7DD1448FFF7BBFCFFF77F
:101F400077FF0346A7F82E31B7F92E213B461249F9
:101F5000184605F049FB3B461846FFF7ABFC0F4B14
:101F60001A680F4B1B6838460E4905F03DFB3B468F
:101F70001846FFF79FFC00BF07F59C77BD4680BD64
:101F800040AF0008BC04002048AF000850AF000874
:101F900054AF0008E80400205CAF0008E004002013
:101FA000E40400206CAF000890B589B000AF786001
:101FB000FFF7C6FEFFF73CFF03461846FEF78EFE0E
:101FC0000346FB617968F869FEF7DCFE03461A46B2
:101FD000474B1B6819461046FEF7CCFD03461A46D0
:101FE000434B1A60434B1B681946F869FEF7C0FD66
:101FF000034679681846FEF779FF0346BB613E4BFE
:102000001B68F9691846FEF7BDFE03461C463B4BAC
:102010001B68374A126811461846FEF7B3FE03469E
:1020200019462046FEF7A6FD03461C46344B1B68A6
:10203000B9691846FEF7A6FE034619462046FEF784
:1020400099FD03467B612B4AFB6913602D49786932
:10205000FEF798FE03463B612B4BFB603969F8683D
:10206000FEF786FD03461A46284B1A603969F86860
:10207000FEF780FD03461A46254B1A60234B1B686A
:102080004FF000011846FFF71BF80346002B03D062
:102090001E4B4FF000021A601D4B1B684FF00001F1
:1020A0001846FFF70DF80346002B03D0184B4FF0EE
:1020B00000021A60154B1B6816491846FFF71EF8F8
:1020C0000346002B02D0114B124A1A60104B1B68BA
:1020D00010491846FFF712F80346002B00D102E022
:1020E0000B4B0C4A1A6000BF2437BD4690BD00BFA1
:1020F000F8040020FC0400201C000020F404002050
:1021000020000020ACC5A739CDCC4C3E00050020F6
:10211000040500203333B33E90B589B000AFF860BA
:10212000B9607A603B607968B868FEF721FD0346C4
:10213000BB61FB68DC683968B869FEF723FE0346BB
:1021400019462046FEF716FD03461A46FB68DA607C
:10215000FB681B691946B869FEF70AFD0346396832
:102160001846FEF7C3FE03467B61FB681B68B9692E
:102170001846FEF707FE03461C46FB685A68FB68D4
:10218000DB6819461046FEF7FDFD0346194620465A
:10219000FEF7F0FC03461C46FB689B68796918460D
:1021A000FEF7F0FD034619462046FEF7E3FC034622
:1021B000FB61FB68BA691A614FF00001F869FEF72C
:1021C0007FFF0346002B02D04FF00003FB6107495D
:1021D000F869FEF793FF0346002B01D0034BFB6128
:1021E000FB6918462437BD4690BD00BF00C0794446
:1021F00080B582B000AF05211448FFF7F9FB786085
:1022000013497868FEF770FF0346002B08D0114988
:102210007868FEF75FFF0346002B01D0012310E032
:102220000D497868FEF760FF0346002B08D00B4984
:102230007868FEF74FFF0346002B01D0022300E031
:10224000002318460837BD4680BD00BF6804002043
:1022500000004844000096440000E1440080094525
:1022600090B583B000AF294B1B6800225A63274BFF
:102270001B6800221A64FFF7BBFF03461A46244B73
:102280001A70234B1B78DBB2012B08D0204B1B7834
:10229000DBB2022B03D0642001F0A8F9EBE71D4B61
:1022A00000221A701C4B4FF000021A601B4B4FF0BB
:1022B00000021A601A4B1B4A1A601B4B194A1A601B
:1022C000174B1968194B1A68194B1B681948FFF707
:1022D00023FF7860144B1968174B1A68144B1B685E
:1022E0001648FFF719FF3860084B1C687868FEF73E
:1022F0000FFF03466363054B1C683868FEF708FF51
:102300000346236400BF0C37BD4690BDB8020020D1
:102310000805002009050020F8040020FC04002026
:10232000000500209A99193E04050020C8040020E9
:102330004C00002024000020CC04002038000020A5
:1023400090B583B000AF164B164A1A60164B174A69
:102350001A60134B1968164B1A68164B1B681648FF
:10236000FFF7DAFE7860104B1968144B1A68114BAE
:102370001B681348FFF7D0FE3860124B1C68786862
:10238000FEF7C6FE034663630E4B1C683868FEF713
:10239000BFFE0346236400BF0C37BD4690BD00BF9F
:1023A00000050020CDCCCC3D040500209A99193EB3
:1023B000C80400204C00002024000020CC04002091
:1023C00038000020B802002090B583B000AF164B53
:1023D0004FF07A521A60154B154A1A60124B196861
:1023E000144B1A68144B1B681448FFF795FE78606D
:1023F0000E4B1968124B1A680F4B1B681148FFF7F8
:102400008BFE3860104B1C687868FEF781FE03462F
:1024100063630D4B1C683868FEF77AFE034623643D
:1024200000BF0C37BD4690BD00050020040500200C
:10243000CDCCCC3DC80400204C000020240000205E
:10244000CC04002038000020B802002080B59AB0EB
:1024500000AF1D4B1B78DBB2012B0BD13B1D1B4981
:10246000184605F0C1F83B1D1846FFF723FAFFF7A1
:1024700067FF1AE0144B1B78DBB2022B0BD13B1D1C
:102480001349184605F0B0F83B1D1846FFF712FA3D
:10249000FFF79AFF09E03B1D0E49184605F0A4F826
:1024A0003B1D1846FFF706FA0AE00B4B01221A7093
:1024B00001F092F80346094A1360094B00221A7092
:1024C0006837BD4680BD00BF0805002084AF000806
:1024D0009CAF0008B4AF00080B0500200C050020DD
:1024E0000A05002080B400AF074B00221A70074B8A
:1024F0004FF000021A60064B4FF000021A6000BF56
:10250000BD4680BC704700BF0B050020F8040020CA
:10251000FC04002080B582B000AFFFF789FC0346C1
:10252000FB80284B1B6843F2A202934218DD254B27
:102530001B6843F2C722934212DCB7F90630402BE6
:102540000EDCB7F9063013F1400F09DB1E4B1B7888
:10255000DBB2002B04D11D4B01221A7001232CE0A9
:10256000184B1B6846F2A81293420FDD154B1B68EF
:1025700046F28F52934209DC134B1B78DBB2002BDF
:1025800004D0134B01221A70012316E0114B1B8853
:10259000312B11D80F4B5B88312B0DD80D4B9B88FD
:1025A000312B09D80B4BDB88312B05D8094B1B8904
:1025B000312B01D8012300E0002318460837BD461F
:1025C00080BD00BFE40400200805002009050020AC
:1025D0000A050020E804002090B58DB004AF00F09B
:1025E000A3FF00F0E9F800F0B7FB00F097FB00F064
:1025F0003FF900F049FA00F03DFB00F0B5F900F0BA
:10260000E5FA00F061FB00F093FA0021554802F072
:10261000B7FE0C21534802F0B3FE3C21524802F0B1
:10262000F3FF3C21514802F0EFFF05225049514889
:1026300001F0D8F8504B0293504B01934FF40073C4
:1026400000934F4B4FF480724D494E48FFF748F9C5
:10265000FFF746FAFFF754FA0023FB610023BB6142
:1026600000237B6100233B6100F0B6FFF860FA684D
:102670007B69D31A632B03D9FB687B61FFF750FAA0
:10268000FA68BB69D31A632B07D9FB68BB61FFF7F4
:1026900057FBFFF729FBFFF70BFCFFF73BFF034658
:1026A000002B18D0384B1B78DBB2002B02D0FFF781
:1026B000D7FD56E0354B1B78DBB2002B02D0FFF77D
:1026C000C5FE4EE0274B1B6800225A63254B1B6852
:1026D00000221A6445E02E4B1B78DBB2002B08D099
:1026E0002C4B1B68FA68D31AB3F5C87F01D3FFF7E8
:1026F000F9FE254B1B78DBB2002BB5D1244B1B78A0
:10270000DBB2002BB0D1FA68FB69D31A632BABD9CB
:10271000FB68FB61204B1B681846FFF745FC1F4B0D
:1027200019681F4B1A681F4B1B681F48FFF7F4FC02
:10273000B8601E4B19681E4B1A681A4B1B681D485F
:10274000FFF7EAFC7860074B1C68B868FEF7E0FC0E
:1027500003466363034B1C687868FEF7D9FC0346A5
:10276000236481E7B80200200003002090030020CA
:102770009C04002044020020A918FBFF44DBCF4347
:10278000000C014068040020090500200A05002013
:102790000B0500200C050020500000200005002043
:1027A000C80400204C000020240000200405002064
:1027B000CC0400203800002080B594B000AF07F1B1
:1027C000280328220021184604F073FF07F11403A0
:1027D00000221A605A609A60DA601A613B1D00227A
:1027E0001A605A609A60DA600123BB624FF480334A
:1027F000FB6200233B630123BB6302237B644FF432
:102800008033BB644FF4E013FB6407F128031846E0
:1028100002F052F80346002B01D000F00BFB0F230F
:102820007B610223BB610023FB614FF480633B6249
:102830004FF480637B6207F114030221184602F013
:10284000BDFA0346002B01D000F0F4FA02237B60AE
:102850004FF40043FB603B1D184602F03DFC03466D
:10286000002B01D000F0E6FA00BF5037BD4680BD16
:1028700080B584B000AF3B1D00221A605A609A6098
:10288000374B384A1A60364B4FF480729A60344B9B
:1028900001221A73324B00221A75314B4FF4602219
:1028A000DA612F4B00225A602D4B05221A612C4809
:1028B00000F0C0FE0346002B01D000F0BBFA00235D
:1028C0007B600123BB600723FB603B1D1946244846
:1028D00001F040F90346002B01D000F0ABFA0123D0
:1028E0007B600223BB600623FB603B1D19461C482E
:1028F00001F030F90346002B01D000F09BFA0223CF
:102900007B600323BB603B1D1946154801F022F98B
:102910000346002B01D000F08DFA03237B600423D3
:10292000BB603B1D19460E4801F014F90346002B0D
:1029300001D000F07FFA04237B600523BB600723EE
:10294000FB603B1D1946064801F004F90346002BC5
:1029500001D000F06FFA00BF1037BD4680BD00BF48
:10296000440200200024014080B592B000AF07F17E
:10297000400300221A605A6007F1240300221A6003
:102980005A609A60DA601A615A619A613B1D20228E
:102990000021184604F08DFE394B3A4A1A60384B34
:1029A00047225A60364B00229A60354B40F2E7329C
:1029B000DA60334B00221A61314B00225A61304BEE
:1029C00080229A612E4802F08CFC0346002B01D035
:1029D00000F030FA00233B6400237B6407F14003DE
:1029E0001946274803F0F4FB0346002B01D000F002
:1029F00021FA60237B620023BB620023FB62002379
:102A00003B6300237B630023BB630023FB6307F16D
:102A10002403002219461A4802F074FF0346002BD3
:102A200001D000F007FA07F124030C2219461448DC
:102A300002F068FF0346002B01D000F0FBF90023F1
:102A40007B600023BB600023FB6000233B6100230D
:102A50007B614FF40053BB6100233B623B1D194671
:102A6000074803F013FC0346002B01D000F0E2F905
:102A7000034800F065FB00BF4837BD4680BD00BF7E
:102A8000B8020020002C014080B58CB000AF07F1E7
:102A90000C0324220021184604F00BFE3B1D0022EB
:102AA0001A605A60214B4FF080421A601F4B00227F
:102AB0005A601E4B00229A601C4B4FF6FF72DA6080
:102AC0001A4B00221A61194B80229A610323FB6082
:102AD00000233B6101237B610023BB610023FB6179
:102AE00000233B6201237B620023BB620023FB6265
:102AF00007F10C0319460D4802F0E4FC0346002BD5
:102B000001D000F097F900237B600023BB603B1DE0
:102B10001946064803F05CFB0346002B01D000F089
:102B200089F900BF3037BD4680BD00BF00030020DB
:102B300080B586B000AF07F1080300221A605A6022
:102B40009A60DA603B4600221A605A601D4B1E4AAA
:102B50001A601C4B41F61F425A601A4B00229A60C1
:102B6000184B6322DA60174B00221A61154B802242
:102B70009A61144802F066FB0346002B01D000F076
:102B800059F94FF48053BB6007F1080319460D480B
:102B900002F07AFF0346002B01D000F04BF900232E
:102BA0003B6000237B603B461946064803F010FB60
:102BB0000346002B01D000F03DF900BF1837BD4699
:102BC00080BD00BF480300200004004080B58CB0E9
:102BD00000AF07F10C0324220021184604F069FD20
:102BE0003B1D00221A605A60204B214A1A601F4B7D
:102BF00000225A601D4B00229A601C4B4FF6FF7258
:102C0000DA601A4B00221A61184B80229A61032362
:102C1000FB6000233B6101237B610023BB61002338
:102C2000FB6100233B6201237B620023BB62002324
:102C3000FB6207F10C0319460C4802F043FC034603
:102C4000002B01D000F0F6F800237B600023BB606E
:102C50003B1D1946054803F0BBFA0346002B01D083
:102C600000F0E8F800BF3037BD4680BD900300207B
:102C70000008004080B500AF114B124A1A60104B9B
:102C80004FF416525A600E4B00229A600C4B0022F1
:102C9000DA600B4B00221A61094B0C225A61084B77
:102CA00000229A61064B0022DA61054803F051FBCD
:102CB0000346002B01D000F0BDF800BF80BD00BF6F
:102CC000D80300200038014080B500AF114B124AF4
:102CD0001A60104B4FF416525A600E4B00229A6045
:102CE0000C4B0022DA600B4B00221A61094B0C22BC
:102CF0005A61084B00229A61064B0022DA610548AE
:102D000003F027FB0346002B01D000F093F800BF2F
:102D100080BD00BF200400200048004080B582B084
:102D200000AF0C4B5B690B4A43F001035361094B45
:102D30005B6903F001037B607B68002200210B20AC
:102D400001F0E1F90B2001F0FAF900BF0837BD46A8
:102D500080BD00BF0010024080B588B000AF07F111
:102D6000100300221A605A609A60DA602E4B9B6949
:102D70002D4A43F0200393612B4B9B6903F0200302
:102D8000FB60FB68284B9B69274A43F0040393616F
:102D9000254B9B6903F00403BB60BB68224B9B6916
:102DA000214A43F0080393611F4B9B6903F008031A
:102DB0007B607B68002260211C4801F064FD0022DA
:102DC00040F207211A4801F05EFD60233B610123B8
:102DD0007B610023BB610223FB6107F110031946ED
:102DE000124801F0B5FB40F207233B6101237B61F0
:102DF0000023BB610223FB6107F1100319460C4855
:102E000001F0A6FB4FF480733B6100237B6101233B
:102E1000BB6107F110031946054801F099FB00BF9B
:102E20002037BD4680BD00BF0010024000080140B1
:102E3000000C014080B400AF72B600BF00BFFDE7D8
:102E400080B485B000AF154B9B69144A43F0010371
:102E50009361124B9B6903F00103BB60BB680F4B8E
:102E6000DB690E4A43F08053D3610C4BDB6903F0FE
:102E700080537B607B680A4B5B68FB60FB6823F0D8
:102E8000E063FB60FB6843F00073FB60044AFB688F
:102E9000536000BF1437BD4680BC7047001002402D
:102EA0000000014080B588B000AF786007F11003E2
:102EB00000221A605A609A60DA607B681B682D4AAB
:102EC000934252D12C4B9B692B4A43F4007393617C
:102ED000294B9B6903F40073FB60FB68264B9B69DD
:102EE000254A43F004039361234B9B6903F00403D9
:102EF000BB60BB681F233B6103237B6107F11003A9
:102F000019461E4801F024FB1D4B1E4A1A601C4B3B
:102F100000225A601A4B00229A60194B8022DA6014
:102F2000174B4FF480721A61154B4FF480625A614F
:102F3000134B20229A61124B4FF40052DA61104871
:102F400001F018F90346002B01D0FFF773FF7B68EF
:102F50000B4A1A620A4A7B6853620022002112203F
:102F600001F0D1F8122001F0EAF800BF2037BD4689
:102F700080BD00BF00240140001002400008014055
:102F8000740200200800024080B485B000AF786071
:102F90007B681B68094A93420BD1094B9B69084A1D
:102FA00043F400639361064B9B6903F40063FB6089
:102FB000FB6800BF1437BD4680BC7047002C014041
:102FC0000010024080B58CB000AF786007F11C03A0
:102FD00000221A605A609A60DA607B681B68B3F15D
:102FE000804F4FD13E4BDB693D4A43F00103D36133
:102FF0003B4BDB6903F00103BB61BB69384B9B6949
:10300000374A43F004039361354B9B6903F0040393
:103010007B617B69324B9B69314A43F008039361C2
:103020002F4B9B6903F008033B613B694FF400435E
:10303000FB6100233B6200237B6207F11C031946FE
:10304000284801F085FA0823FB6100233B62002336
:103050007B6207F11C031946234801F079FA234BE0
:103060005B68FB62FB6A23F44073FB62FB6A43F01C
:10307000E063FB62FB6A43F48073FB621B4AFB6AFA
:10308000536028E07B681B68194A934223D1144B94
:10309000DB69134A43F00403D361114BDB6903F08E
:1030A0000403FB60FB680E4B9B690D4A43F0080369
:1030B00093610B4B9B6903F00803BB60BB68C023A3
:1030C000FB6100233B6200237B6207F11C0319466E
:1030D000054801F03DFA00BF3037BD4680BD00BF56
:1030E0000010024000080140000C014000000140B7
:1030F0000008004080B584B000AF78607B681B6832
:103100000D4A934213D10D4BDB690C4A43F0020385
:10311000D3610A4BDB6903F00203FB60FB6800220A
:1031200000211D2000F0EFFF1D2001F008F800BF76
:103130001037BD4680BD00BF0004004000100240B3
:1031400080B588B000AF786007F1100300221A60E4
:103150005A609A60DA607B681B68104A934218D103
:103160000F4B9B690E4A43F0040393610C4B9B6920
:1031700003F00403FB60FB684FF410633B61022320
:103180007B610223FB6107F110031946054801F03A
:10319000DFF900BF2037BD4680BD00BF002C0140D5
:1031A000001002400008014080B58AB000AF78608E
:1031B00007F1180300221A605A609A60DA607B688F
:1031C0001B68384A934232D1374B9B69364A43F4E5
:1031D00080439361344B9B6903F480437B617B693B
:1031E000314B9B69304A43F0040393612E4B9B693A
:1031F00003F004033B613B694FF40073BB6102239E
:10320000FB6103237B6207F118031946274801F08D
:103210009FF94FF48063BB610023FB6100233B6295
:1032200007F118031946214801F092F936E07B684E
:103230001B681F4A934231D11B4BDB691A4A43F486
:103240008023D361184BDB6903F48023FB60FB68A8
:10325000154B9B69144A43F008039361124B9B6919
:1032600003F00803BB60BB684FF48063BB610223BB
:10327000FB6103237B6207F1180319460D4801F037
:1032800067F94FF40063BB610023FB6100233B62DD
:1032900007F118031946074801F05AF900BF28370B
:1032A000BD4680BD003801400010024000080140CA
:1032B00000480040000C014080B400AF00BFFDE7B3
:1032C00080B400AF00BFFDE780B400AF00BFFDE7F2
:1032D00080B400AF00BFFDE780B400AF00BFFDE7E2
:1032E00080B400AF00BFBD4680BC704780B400AF63
:1032F00000BFBD4680BC704780B400AF00BFBD4674
:1033000080BC704780B500AF00F054F900BF80BDAD
:1033100080B500AF024800F0E7FF00BF80BD00BFEE
:103320007402002080B500AF024800F039FB00BFF6
:1033300080BD00BF4402002080B500AF024802F00B
:10334000F1F900BF80BD00BF4803002080B400AF8A
:1033500001231846BD4680BC704780B582B000AFDF
:103360007860396004F0F8F9034616221A604FF0CD
:10337000FF3318460837BD4680BD80B582B000AF28
:1033800078604FF0FF317868FFF7E7FF00BFFDE797
:1033900080B586B000AFF860B9607A6000237B61C9
:1033A0000AE0AFF300800146BB685A1CBA60CAB29B
:1033B0001A707B6901337B617A697B689A42F0DB22
:1033C0007B6818461837BD4680BD80B586B000AF13
:1033D000F860B9607A6000237B6109E0BB685A1C21
:1033E000BA601B781846AFF300807B6901337B61BC
:1033F0007A697B689A42F1DB7B6818461837BD46CC
:1034000080BD80B483B000AF78604FF0FF331846C2
:103410000C37BD4680BC704780B483B000AF786085
:1034200039603B684FF400525A60002318460C374D
:10343000BD4680BC704780B483B000AF7860012384
:1034400018460C37BD4680BC704780B485B000AFCD
:10345000F860B9607A60002318461437BD4680BC16
:103460007047000080B586B000AF7860144A154BF5
:10347000D31A7B617B693B61134B1B68002B02D124
:10348000114B124A1A60104B1A687B6813443A6950
:103490009A4207D204F060F903460C221A604FF0FA
:1034A000FF3309E0084B1B68FB60074B1A687B6819
:1034B0001344054A1360FB6818461837BD4680BDA3
:1034C00000500020000400001005002068060020C5
:1034D00080B400AF00BFBD4680BC7047FFF7F8FF67
:1034E0000B480C490C4A002302E0D458C450043362
:1034F000C4188C42F9D3094A094C002301E0136037
:103500000432A242FBD304F02DF9FFF765F87047AF
:10351000000000202802002034B400082802002007
:1035200064060020FEE7000080B500AF084B1B6872
:10353000074A43F010031360032000F0D9FD0F2069
:1035400000F008F8FFF77CFC0023184680BD00BFA0
:103550000020024080B582B000AF7860124B1A683C
:10356000124B1B7819464FF47A73B3FBF1F3B2FB9D
:10357000F3F3184600F0F1FD0346002B01D00123C0
:103580000EE07B680F2B0AD8002279684FF0FF30DD
:1035900000F0B9FD064A7B681360002300E00123B8
:1035A00018460837BD4680BD540000205C0000204E
:1035B0005800002080B400AF054B1B781A46054B1D
:1035C0001B681344034A136000BFBD4680BC7047AC
:1035D0005C0000201405002080B400AF024B1B6883
:1035E0001846BD4680BC70471405002080B584B0E5
:1035F00000AF7860FFF7F0FFB8607B68FB60FB68A6
:10360000B3F1FF3F05D00A4B1B781A46FB68134401
:10361000FB6000BFFFF7E0FF0246BB68D31AFA6801
:103620009A42F7D800BF00BF1037BD4680BD00BF2B
:103630005C00002080B586B000AF78600023FB7589
:1036400000233B610023BB600023FB607B68002BF1
:1036500001D10123BEE07B689B68002B7B689B6ADD
:10366000002B09D17B680022DA627B68002283F894
:1036700024207868FFF716FC786800F0BDFB03464D
:10368000FB757B689B6A03F01003002B40F0998068
:10369000FB7D002B40F095807B689B6A23F4885368
:1036A00023F0020343F002027B689A627B685A6847
:1036B0007B68DB691A437B681B7B5B001343BA683A
:1036C0001343BB607B689B68B3F5807F03D07B6846
:1036D0009B68012B02D14FF4807300E000233A690C
:1036E00013433B617B681B7D012B19D17B681B7BDE
:1036F000002B09D17B689B69013B5A033B6913434B
:1037000043F400633B610BE07B689B6A43F020025B
:103710007B689A627B68DB6A43F001027B68DA624D
:103720007B681B685B6823F469417B681B683A69A6
:103730000A435A607B681B689A68284B13407A6872
:103740001268B9680B4393607B689B68B3F5807F10
:1037500003D07B689B68012B04D17B681B69013B0C
:103760001B05FB607B681B68DB6A23F470017B68C8
:103770001B68FA680A43DA627B681B689A68184B10
:103780001340BA689A420BD17B680022DA627B68E8
:103790009B6A23F0030343F001027B689A6218E0FE
:1037A0007B689B6A23F0120343F010027B689A62E5
:1037B0007B68DB6A43F001027B68DA620123FB75F8
:1037C00007E07B689B6A43F010027B689A620123E2
:1037D000FB75FB7D18461837BD4680BDFDF7E1FF40
:1037E000FE0E1FFF80B586B000AFF860B9607A604A
:1037F0000023FB75FB681B68644A934204D0FB6896
:103800001B68634A934206D1604B5B6803F47023E4
:10381000002B40F0B380FB6893F82430012B01D1DA
:103820000223AEE0FB68012283F82420F86800F050
:1038300089FA0346FB75FB7D002B40F09A80FB68FC
:103840009B6A23F4706323F0010343F48072FB68E6
:103850009A62FB681B684E4A934205D14B4B5B68EA
:1038600003F47023002B15D1FB689B6A23F48012AC
:10387000FB689A62FB681B685B6803F48063002B3B
:1038800026D0FB689B6A23F4405343F48052FB68C4
:103890009A621DE0FB689B6A43F48012FB689A629F
:1038A000FB681B68394A934204D0FB681B68384A9E
:1038B00093420DD1354B5B6803F48063002B07D036
:1038C000FB689B6A23F4405343F48052FB689A627E
:1038D000FB689B6A03F48053002B06D0FB68DB6A0D
:1038E00023F00602FB68DA6202E0FB680022DA627B
:1038F000FB68002283F82420FB681B6A254A9A6231
:10390000FB681B6A244ADA62FB681B6A234A1A6353
:10391000FB681B686FF002021A60FB681B689A68FC
:10392000FB681B6842F480729A60FB68186AFB6847
:103930001B684C331946BA687B6800F075FCFB685D
:103940001B689B6803F46023B3F5602F08D1FB6804
:103950001B689A68FB681B6842F4A0029A600FE03B
:10396000FB681B689A68FB681B6842F480129A60C7
:1039700006E0FB68002283F8242001E00123FB75A8
:10398000FB7D18461837BD4680BD00BF00240140AE
:10399000002801407B3E0008F73E0008133F000866
:1039A00080B584B000AF78607B681B681B68FB60E3
:1039B0007B681B685B68BB60BB6803F02003002B5F
:1039C0003ED0FB6803F00203002B39D07B689B6A72
:1039D00003F01003002B05D17B689B6A43F400724F
:1039E0007B689A627B681B689B6803F46023B3F56D
:1039F000602F1DD17B681B7B002B19D17B681B6856
:103A00005A687B681B6822F020025A607B689B6AB8
:103A100023F480727B689A627B689B6A03F480530C
:103A2000002B05D17B689B6A43F001027B689A6298
:103A30007868FEF723F97B681B686FF012021A6042
:103A4000BB6803F08003002B4DD0FB6803F0040338
:103A5000002B48D07B689B6A03F01003002B05D134
:103A60007B689B6A43F400527B689A627B681B68A0
:103A70009B6803F4E043B3F5E04F12D07B681B680A
:103A80005B6803F48063002B25D17B681B689B680F
:103A900003F46023B3F5602F1DD17B681B7B002BE3
:103AA00019D17B681B685A687B681B6822F080020A
:103AB0005A607B689B6A23F480527B689A627B68B9
:103AC0009B6A03F48073002B05D17B689B6A43F0EB
:103AD00001027B689A62786800F035FA7B681B689F
:103AE0006FF00C021A60BB6803F04003002B12D089
:103AF000FB6803F00103002B0DD07B689B6A43F445
:103B000080327B689A62786800F012F87B681B68E4
:103B10006FF001021A6000BF1037BD4680BD80B44F
:103B200083B000AF786000BF0C37BD4680BC7047E3
:103B300080B483B000AF786000BF0C37BD4680BC56
:103B4000704780B483B000AF786000BF0C37BD46CB
:103B500080BC704780B485B000AF786039600023C6
:103B6000FB730023BB607B6893F82430012B01D1E9
:103B70000223DCE07B68012283F824203B685B6839
:103B8000062B1CD87B681B68596B3B685A68134628
:103B90009B001344053B1F2202FA03F3DB43194049
:103BA0003B6818683B685A6813469B001344053B02
:103BB00000FA03F27B681B680A435A633CE03B68E7
:103BC0005B680C2B1CD87B681B68196B3B685A68B8
:103BD00013469B001344233B1F2202FA03F3DB43EB
:103BE00019403B6818683B685A6813469B001344A9
:103BF000233B00FA03F27B681B680A431A631BE04D
:103C00007B681B68D96A3B685A6813469B0013445B
:103C1000413B1F2202FA03F3DB4319403B6818685B
:103C20003B685A6813469B001344413B00FA03F279
:103C30007B681B680A43DA623B681B68092B1CD946
:103C40007B681B68D9683B681A6813465B0013449D
:103C50001E3B072202FA03F3DB4319403B689868D6
:103C60003B681A6813465B0013441E3B00FA03F2DC
:103C70007B681B680A43DA6019E07B681B68196976
:103C80003B681A6813465B001344072202FA03F3E9
:103C9000DB4319403B6898683B681A6813465B0031
:103CA000134400FA03F27B681B680A431A613B68FD
:103CB0001B68102B03D03B681B68112B32D17B682B
:103CC0001B681D4A934225D17B681B689B6803F4DF
:103CD0000003002B26D17B681B689A687B681B68F1
:103CE00042F400029A603B681B68102B1AD1134BF8
:103CF0001B68134AA2FB03239A0C13469B00134430
:103D00005B00BB6002E0BB68013BBB60BB68002B93
:103D1000F9D107E07B689B6A43F020027B689A62D6
:103D20000123FB737B68002283F82420FB7B184669
:103D30001437BD4680BC7047002401405400002069
:103D400083DE1B4380B584B000AF78600023FB6046
:103D50000023BB607B681B689B6803F00103012B99
:103D600040D07B681B689A687B681B6842F0010240
:103D70009A601F4B1B681F4AA2FB03239B0CBB606E
:103D800002E0BB68013BBB60BB68002BF9D1FFF7C9
:103D900023FCF8601FE0FFF71FFC0246FB68D31A04
:103DA000022B18D97B681B689B6803F00103012B69
:103DB00011D07B689B6A43F010027B689A627B6833
:103DC000DB6A43F001027B68DA627B68002283F8D9
:103DD0002420012307E07B681B689B6803F0010334
:103DE000012BD8D1002318461037BD4680BD00BF37
:103DF0005400002083DE1B4380B584B000AF7860A0
:103E00000023FB607B681B689B6803F00103012BA8
:103E10002ED17B681B689A687B681B6822F00102C0
:103E20009A60FFF7D9FBF8601BE0FFF7D5FB02466D
:103E3000FB68D31A022B14D97B681B689B6803F0BC
:103E40000103012B0DD17B689B6A43F010027B6854
:103E50009A627B68DB6A43F001027B68DA620123C5
:103E600007E07B681B689B6803F00103012BDCD033
:103E7000002318461037BD4680BD80B584B000AF22
:103E800078607B685B6AFB60FB689B6A03F05003A9
:103E9000002B27D1FB689B6A43F40072FB689A628F
:103EA000FB681B689B6803F46023B3F5602F15D192
:103EB000FB681B7B002B11D1FB689B6A23F480728B
:103EC000FB689A62FB689B6A03F48053002B05D160
:103ED000FB689B6A43F00102FB689A62F868FDF791
:103EE000CDFE04E0FB681B6A1B6B7868984700BF37
:103EF0001037BD4680BD80B584B000AF78607B6868
:103F00005B6AFB60F868FFF70AFE00BF1037BD462A
:103F100080BD80B584B000AF78607B685B6AFB6071
:103F2000FB689B6A43F04002FB689A62FB68DB6AAD
:103F300043F00402FB68DA62F868FFF702FE00BF94
:103F40001037BD4680BD80B483B000AF786000BF3D
:103F50000C37BD4680BC704780B485B000AF786038
:103F60007B6803F00703FB600C4BDB68BB60BA683F
:103F70004FF6FF031340BB60FB681A02BB68134394
:103F800043F0BF6343F40033BB60044ABB68D360B3
:103F900000BF1437BD4680BC704700BF00ED00E095
:103FA00080B400AF044BDB681B0A03F0070318461C
:103FB000BD4680BC704700BF00ED00E080B483B018
:103FC00000AF0346FB7197F90730002B0BDBFB7941
:103FD00003F01F02064997F907305B09012000FA38
:103FE00002F241F8232000BF0C37BD4680BC704769
:103FF00000E100E080B483B000AF03463960FB719C
:1040000097F90730002B0ADB3B68DAB20C4997F9C5
:1040100007301201D2B20B4483F800230AE03B6858
:10402000DAB20849FB7903F00F03043B1201D2B264
:104030000B441A7600BF0C37BD4680BC704700BFEA
:1040400000E100E000ED00E080B489B000AFF8606E
:10405000B9607A60FB6803F00703FB61FB69C3F199
:104060000703042B28BF0423BB61FB690433062B21
:1040700002D9FB69033B00E000237B614FF0FF3274
:10408000BB6902FA03F3DA43BB681A407B699A40C2
:104090004FF0FF317B6901FA03F3D9437B680B4092
:1040A000134318462437BD4680BC704780B582B0A4
:1040B00000AF78607B68013BB3F1807F01D30123BF
:1040C0000FE00A4A7B68013B53600F214FF0FF303D
:1040D000FFF790FF054B00229A60044B07221A60FD
:1040E000002318460837BD4680BD00BF10E000E041
:1040F00080B582B000AF78607868FFF72DFF00BF11
:104100000837BD4680BD80B586B000AF0346B960B4
:104110007A60FB7300237B61FFF742FF78617A6866
:10412000B9687869FFF790FF024697F90F3011469A
:104130001846FFF75FFF00BF1837BD4680BD80B54A
:1041400082B000AF0346FB7197F907301846FFF7BE
:1041500035FF00BF0837BD4680BD80B582B000AFD7
:1041600078607868FFF7A2FF034618460837BD4617
:1041700080BD000080B485B000AF78600023FB6094
:104180007B68002B01D1012343E07B681B681A4642
:10419000224B1344224AA2FB03231B099A007B688B
:1041A0001A647B681F4ADA637B68022283F8212045
:1041B0007B681B681B68FB60FB6823F47F5323F05C
:1041C0003003FB607B685A687B689B681A437B6896
:1041D000DB681A437B681B691A437B685B691A4377
:1041E0007B689B691A437B68DB691343FA68134356
:1041F000FB607B681B68FA681A607B6800229A6320
:104200007B68012283F821207B68002283F820202C
:10421000002318461437BD4680BC7047F8FFFDBF29
:10422000CDCCCCCC0000024080B586B000AFF860A9
:10423000B9607A603B600023FB75FB6893F820301F
:10424000012B01D102234BE0FB68012283F82020DF
:10425000FB6893F82130DBB2012B3AD1FB680222D4
:1042600083F82120FB6800229A63FB681B681A68A8
:10427000FB681B6822F001021A603B687A68B96823
:10428000F86800F037F9FB68DB6A002B08D0FB68A0
:104290001B681A68FB681B6842F00E021A600FE088
:1042A000FB681B681A68FB681B6822F004021A602E
:1042B000FB681B681A68FB681B6842F00A021A60F8
:1042C000FB681B681A68FB681B6842F001021A60F1
:1042D00005E0FB68002283F820200223FB75FB7DAC
:1042E00018461837BD4680BD80B584B000AF7860F1
:1042F0007B68DB6B1B68FB607B681B681B68BB60B3
:104300007B681B6C04229A40FB681340002B4FD043
:10431000BB6803F00403002B4AD07B681B681B6852
:1043200003F02003002B07D17B681B681A687B68A9
:104330001B6822F004021A607B681B68664A93427D
:1043400029D07B681B68654A934222D07B681B6832
:10435000634A93421AD07B681B68624A934212D028
:104360007B681B68604A93420AD07B681B685F4A7F
:10437000934202D14FF480030EE04FF080630BE0D4
:104380004FF4802308E04FF4804305E04FF480634E
:1043900002E0402300E00423554A53607B68DB6A57
:1043A000002B00F094807B68DB6A786898478EE089
:1043B0007B681B6C02229A40FB681340002B56D08E
:1043C000BB6803F00203002B51D07B681B681B689D
:1043D00003F02003002B0BD17B681B681A687B68F5
:1043E0001B6822F00A021A607B68012283F82120F0
:1043F0007B681B68384A934229D07B681B68374A20
:10440000934222D07B681B68354A93421AD07B685E
:104410001B68344A934212D07B681B68324A93422D
:104420000AD07B681B68314A934202D14FF40013D3
:104430000EE04FF000730BE04FF4003308E04FF450
:10444000005305E04FF4007302E0202300E0022354
:10445000274A53607B68002283F820207B689B6A90
:10446000002B34D07B689B6A786898472FE07B6884
:104470001B6C08229A40FB681340002B28D0BB68B5
:1044800003F00803002B23D07B681B681A687B6845
:104490001B6822F00E021A607B681A6C7B68DB6B6B
:1044A000012101FA02F25A607B6801229A637B685B
:1044B000012283F821207B68002283F820207B687A
:1044C0001B6B002B04D07B681B6B7868984700BF80
:1044D00000BF1037BD4680BD080002401C000240EE
:1044E0003000024044000240580002406C0002408C
:1044F0000000024080B485B000AFF860B9607A6017
:104500003B60FB681A6CFB68DB6B012101FA02F26D
:104510005A60FB681B683A685A60FB685B68102B3E
:1045200008D1FB681B687A689A60FB681B68BA68E8
:10453000DA6007E0FB681B68BA689A60FB681B6872
:104540007A68DA6000BF1437BD4680BC704700004F
:1045500080B48BB000AF7860396000237B620023A9
:104560003B6269E101227B6A02FA03F3FB613B686B
:104570001B68FA691340BB61BA69FB699A4240F053
:1045800058813B685B689A4A93425ED0984A93424E
:1045900075D8984A934258D0964A93426FD8964A13
:1045A000934252D0944A934269D8944A93424CD051
:1045B000924A934263D8924A934246D0904A934299
:1045C0005DD8122B2AD8122B59D801A252F823F009
:1045D0004B46000825460008374600087946000883
:1045E0007F4600087F4600087F4600087F46000897
:1045F0007F4600087F4600087F4600087F46000887
:104600007F4600087F4600087F4600087F46000876
:104610007F4600082D46000841460008794A93422B
:1046200013D02CE03B68DB683B6229E03B68DB6829
:1046300004333B6224E03B68DB6808333B621FE0E5
:104640003B68DB680C333B621AE03B689B68002BDD
:1046500002D104233B6213E03B689B68012B05D128
:1046600008233B627B68FA691A6109E008233B6210
:104670007B68FA695A6103E000233B6200E000BFF7
:10468000BB69FF2B01D87B6801E07B6804337B6149
:10469000BB69FF2B02D87B6A9B0002E07B6A083B68
:1046A0009B003B617B691A680F213B6901FA03F3A8
:1046B000DB431A40396A3B6901FA03F31A437B6909
:1046C0001A603B685B6803F08053002B00F0B180F8
:1046D0004D4B9B694C4A43F0010393614A4B9B69E4
:1046E00003F00103BB60BB68484A7B6A9B08023346
:1046F00052F82330FB607B6A03F003039B000F2218
:1047000002FA03F3DB43FA681340FB607B68404A1C
:10471000934213D07B683F4A93420DD07B683E4A58
:10472000934207D07B683D4A934201D1032306E0C0
:10473000042304E0022302E0012300E000237A6A5C
:1047400002F0030292009340FA681343FB602F4982
:104750007B6A9B080233FA6841F823203B685B6858
:1047600003F48013002B06D02D4B9A682C49BB69AB
:1047700013438B6006E02A4B9A68BB69DB432849E8
:1047800013408B603B685B6803F40013002B06D07A
:10479000234BDA682249BB691343CB6006E0204B08
:1047A000DA68BB69DB431E491340CB603B685B683A
:1047B00003F40033002B06D0194B5A681849BB6923
:1047C00013434B6006E0164B5A68BB69DB43144940
:1047D00013404B603B685B6803F48033002B21D0AF
:1047E0000F4B1A680E49BB6913430B6021E000BFF1
:1047F00000003210000031100000221000002110D3
:1048000000001210000011100010024000000140D2
:1048100000080140000C014000100140001401405C
:10482000000401400B4B1A68BB69DB430949134084
:104830000B607B6A01337B623B681A687B6A22FAF1
:1048400003F3002B7FF48EAE00BF00BF2C37BD46B4
:1048500080BC70470004014080B485B000AF786030
:104860000B467B807B689A687B881340002B02D0C4
:104870000123FB7301E00023FB73FB7B1846143715
:10488000BD4680BC704780B483B000AF78600B46F3
:104890007B8013467B707B78002B03D07A887B6803
:1048A0001A6103E07B881A047B681A6100BF0C3729
:1048B000BD4680BC7047000080B586B000AF786010
:1048C0007B68002B01D1012372E27B681B6803F037
:1048D0000103002B00F08780924B5B6803F00C0310
:1048E000042B0CD08F4B5B6803F00C03082B12D108
:1048F0008C4B5B6803F48033B3F5803F0BD1894B5D
:104900001B6803F40033002B6CD07B685B68002BC2
:1049100068D101234CE27B685B68B3F5803F06D128
:10492000804B1B687F4A43F4803313602EE07B6822
:104930005B68002B0CD17B4B1B687A4A23F48033D5
:104940001360784B1B68774A23F4802313601DE0C3
:104950007B685B68B3F5A02F0CD1724B1B68714A62
:1049600043F4802313606F4B1B686E4A43F480331B
:1049700013600BE06B4B1B686A4A23F480331360AF
:10498000684B1B68674A23F4802313607B685B686D
:10499000002B13D0FEF720FE386108E0FEF71CFE66
:1049A00002463B69D31A642B01D9032300E25D4B15
:1049B0001B6803F40033002BF0D014E0FEF70CFE6C
:1049C000386108E0FEF708FE02463B69D31A642B03
:1049D00001D90323ECE1534B1B6803F40033002B94
:1049E000F0D100E000BF7B681B6803F00203002BDE
:1049F00063D04C4B5B6803F00C03002B0BD0494B8E
:104A00005B6803F00C03082B1CD1464B5B6803F476
:104A10008033002B16D1434B1B6803F00203002B9D
:104A200005D07B681B69012B01D00123C0E13D4B00
:104A30001B6823F0F8027B685B69DB00394913438C
:104A40000B603AE07B681B69002B20D0364B0122BB
:104A50001A60FEF7C1FD386108E0FEF7BDFD0246B1
:104A60003B69D31A022B01D90323A1E12D4B1B680B
:104A700003F00203002BF0D02A4B1B6823F0F8024E
:104A80007B685B69DB00274913430B6015E0264B0D
:104A900000221A60FEF7A0FD386108E0FEF79CFDD9
:104AA00002463B69D31A022B01D9032380E11D4B37
:104AB0001B6803F00203002BF0D17B681B6803F036
:104AC0000803002B3AD07B689B69002B19D0174B49
:104AD00001221A60FEF780FD386108E0FEF77CFDD8
:104AE00002463B69D31A022B01D9032360E10D4B27
:104AF0005B6A03F00203002BF0D0012000F0CEFA35
:104B00001CE00A4B00221A60FEF766FD38610FE0D8
:104B1000FEF762FD02463B69D31A022B08D9032334
:104B200046E100BF001002400000424280044242C1
:104B3000924B5B6A03F00203002BE9D17B681B6890
:104B400003F00403002B00F0A6800023FB758B4BC1
:104B5000DB6903F08053002B0DD1884BDB69874A5A
:104B600043F08053D361854BDB6903F08053BB6016
:104B7000BB680123FB75824B1B6803F48073002B19
:104B800018D17F4B1B687E4A43F480731360FEF795
:104B900023FD386108E0FEF71FFD02463B69D31A8A
:104BA000642B01D9032303E1754B1B6803F4807365
:104BB000002BF0D07B68DB68012B06D16F4B1B6AA2
:104BC0006E4A43F0010313622DE07B68DB68002B23
:104BD0000CD16A4B1B6A694A23F001031362674BCD
:104BE0001B6A664A23F0040313621CE07B68DB68DF
:104BF000052B0CD1614B1B6A604A43F0040313621E
:104C00005E4B1B6A5D4A43F0010313620BE05B4B92
:104C10001B6A5A4A23F001031362584B1B6A574A16
:104C200023F0040313627B68DB68002B15D0FEF7CA
:104C3000D3FC38610AE0FEF7CFFC02463B69D31A89
:104C400041F28832934201D90323B1E04B4B1B6AF6
:104C500003F00203002BEED014E0FEF7BDFC386138
:104C60000AE0FEF7B9FC02463B69D31A41F28832EA
:104C7000934201D903239BE0404B1B6A03F00203DC
:104C8000002BEED1FB7D012B05D13C4BDB693B4A70
:104C900023F08053D3617B68DB69002B00F08780B1
:104CA000364B5B6803F00C03082B61D07B68DB6933
:104CB000022B46D1334B00221A60FEF78DFC38617F
:104CC00008E0FEF789FC02463B69D31A022B01D9A2
:104CD00003236DE0294B1B6803F00073002BF0D118
:104CE0007B681B6AB3F5803F08D1244B5B6823F4D3
:104CF00000327B689B68214913434B601F4B5B6804
:104D000023F474127B68196A7B685B6A0B431B4946
:104D100013434B601B4B01221A60FEF75DFC3861A8
:104D200008E0FEF759FC02463B69D31A022B01D971
:104D300003233DE0114B1B6803F00073002BF0D000
:104D400035E0104B00221A60FEF746FC386108E09F
:104D5000FEF742FC02463B69D31A022B01D903231A
:104D600026E0064B1B6803F00073002BF0D11EE019
:104D70007B68DB69012B07D1012319E00010024099
:104D800000700040600042420B4B5B68FB60FB68B8
:104D900003F480327B681B6A9A4206D1FB6803F4F5
:104DA00070127B685B6A9A4201D0012300E0002305
:104DB00018461837BD4680BD0010024080B584B04B
:104DC00000AF786039607B68002B01D10123D0E00F
:104DD0006A4B1B6803F007033A689A4210D9674B85
:104DE0001B6823F0070265493B6813430B60634B64
:104DF0001B6803F007033A689A4201D00123B8E028
:104E00007B681B6803F00203002B20D07B681B68C3
:104E100003F00403002B05D0594B5B68584A43F458
:104E2000E06353607B681B6803F00803002B05D028
:104E3000534B5B68524A43F460535360504B5B687A
:104E400023F0F0027B689B684D4913434B607B68FD
:104E50001B6803F00103002B40D07B685B68012BCB
:104E600007D1474B1B6803F40033002B15D10123F6
:104E70007FE07B685B68022B07D1414B1B6803F026
:104E80000073002B09D1012373E03D4B1B6803F035
:104E90000203002B01D101236BE0394B5B6823F047
:104EA00003027B685B68364913434B60FEF794FB53
:104EB000F8600AE0FEF790FB0246FB68D31A41F265
:104EC0008832934201D9032353E02D4B5B6803F0F2
:104ED0000C027B685B689B009A42EBD1274B1B68F6
:104EE00003F007033A689A4210D2244B1B6823F060
:104EF000070222493B6813430B60204B1B6803F0F9
:104F000007033A689A4201D0012332E07B681B68AC
:104F100003F00403002B08D0194B5B6823F4E06214
:104F20007B68DB68164913434B607B681B6803F0A2
:104F30000803002B09D0124B5B6823F460527B6896
:104F40001B69DB000E4913434B6000F021F8024659
:104F50000B4B5B681B0903F00F030A49CB5C22FA79
:104F600003F3094A1360094B1B681846FEF7F2FA6F
:104F7000002318461037BD4680BD00BF0020024008
:104F800000100240D0AF000854000020580000205C
:104F900080B487B000AF0023FB600023BB60002318
:104FA0007B6100237B6000233B611E4B5B68FB60E1
:104FB000FB6803F00C03042B02D0082B03D027E07E
:104FC000194B3B6127E0FB689B0C03F00F03174A6A
:104FD000D35C7B60FB6803F48033002B10D0114B53
:104FE0005B685B0C03F00103114AD35CBB607B6818
:104FF0000D4A03FB02F2BB68B2FBF3F37B6104E0F2
:105000007B680C4A02FB03F37B617B693B6102E036
:10501000054B3B6100BF3B6918461C37BD4680BC51
:10502000704700BF0010024000127A00E8AF00088D
:10503000F8AF000800093D0080B400AF024B1B68C8
:105040001846BD4680BC70475400002080B500AFB4
:10505000FFF7F2FF0246054B5B681B0A03F00703EC
:105060000349CB5C22FA03F3184680BD00100240CE
:10507000E0AF000880B500AFFFF7DEFF0246054B4A
:105080005B68DB0A03F007030349CB5C22FA03F3F6
:10509000184680BD00100240E0AF000880B485B023
:1050A00000AF78600A4B1B680A4AA2FB03235B0A25
:1050B0007A6802FB03F3FB6000BFFB685A1EFA60CC
:1050C000002BF9D100BF00BF1437BD4680BC70472C
:1050D00054000020D34D621080B586B000AF7860D8
:1050E00000233B610023FB607B681B6803F0010326
:1050F000002B7DD00023FB754F4BDB6903F0805301
:10510000002B0DD14C4BDB694B4A43F08053D361EC
:10511000494BDB6903F08053BB60BB680123FB751F
:10512000464B1B6803F48073002B18D1434B1B685C
:10513000424A43F480731360FEF74EFA386108E088
:10514000FEF74AFA02463B69D31A642B01D90323BE
:105150006DE03A4B1B6803F48073002BF0D0364BA4
:105160001B6A03F44073FB60FB68002B2ED07B6846
:105170005B6803F44073FA689A4227D02E4B1B6A8F
:1051800023F44073FB602E4B01221A602C4B00224B
:105190001A60294AFB681362FB6803F00103002BC5
:1051A00014D0FEF719FA38610AE0FEF715FA024644
:1051B0003B69D31A41F28832934201D9032336E086
:1051C0001D4B1B6A03F00203002BEED01A4B1B6A27
:1051D00023F440727B685B68174913430B62FB7DC5
:1051E000012B05D1144BDB69134A23F08053D361A3
:1051F0007B681B6803F00203002B08D00E4B5B6832
:1052000023F440427B689B680B4913434B607B68E7
:105210001B6803F01003002B08D0074B5B6823F4D6
:1052200080027B68DB68044913434B600023184607
:105230001837BD4680BD00BF00100240007000401E
:105240004004424280B582B000AF78607B68002B9A
:1052500001D1012341E07B6893F83D30DBB2002BA4
:1052600006D17B68002283F83C207868FDF742FF76
:105270007B68022283F83D207B681A687B680433D0
:105280001946104600F0F4FC7B68012283F84620A2
:105290007B68012283F83E207B68012283F83F204F
:1052A0007B68012283F840207B68012283F841203B
:1052B0007B68012283F842207B68012283F8432027
:1052C0007B68012283F844207B68012283F8452013
:1052D0007B68012283F83D20002318460837BD462D
:1052E00080BD80B582B000AF78607B68002B01D1B3
:1052F000012341E07B6893F83D30DBB2002B06D1FF
:105300007B68002283F83C207868FDF73DFE7B68CF
:10531000022283F83D207B681A687B6804331946B3
:10532000104600F0A5FC7B68012283F846207B68CC
:10533000012283F83E207B68012283F83F207B68AE
:10534000012283F840207B68012283F841207B689A
:10535000012283F842207B68012283F843207B6886
:10536000012283F844207B68012283F845207B6872
:10537000012283F83D20002318460837BD4680BD32
:1053800080B584B000AF786039603B68002B09D1EC
:105390007B6893F83E30DBB2012B14BF012300235E
:1053A000DBB222E03B68042B09D17B6893F83F30E5
:1053B000DBB2012B14BF01230023DBB215E03B68F5
:1053C000082B09D17B6893F84030DBB2012B14BF66
:1053D00001230023DBB208E07B6893F84130DBB2A5
:1053E000012B14BF01230023DBB2002B01D00123CA
:1053F0005EE03B68002B04D17B68022283F83E20EC
:1054000013E03B68042B04D17B68022283F83F2021
:105410000BE03B68082B04D17B68022283F8402014
:1054200003E07B68022283F841207B681B6801222D
:105430003968184600F0A8FE7B681B681E4A934234
:1054400007D17B681B685A6C7B681B6842F400427A
:105450005A647B681B68184A93420ED07B681B68AD
:10546000B3F1804F09D07B681B68144A934204D083
:105470007B681B68124A934211D17B681B689B684A
:1054800003F00703FB60FB68062B10D07B681B68EA
:105490001A687B681B6842F001021A6007E07B68AB
:1054A0001B681A687B681B6842F001021A600023BF
:1054B00018461037BD4680BD002C01400004004056
:1054C0000008004080B586B000AF786039607B6826
:1054D000002B01D1012393E07B6893F83D30DBB2D0
:1054E000002B06D17B68002283F83C207868FDF70A
:1054F00069FD7B68022283F83D207B681B689B68FE
:105500007A68126823F4804323F0070393607B6872
:105510001A687B6804331946104600F0A9FB7B68C3
:105520001B689B687B617B681B689B693B617B6830
:105530001B681B6AFB603B681B687A6913437B61CD
:105540003B6923F4407323F003033B613B689A6893
:105550003B689B691B0213433A6913433B613B69F8
:1055600023F4406323F00C033B613B6923F4704355
:1055700023F0F0033B613B68DA683B68DB691B02A0
:1055800013433A6913433B613B681B691A013B684B
:105590001B6A1B0313433A6913433B61FB6823F007
:1055A0002203FB603B685A683B685B691B0113433D
:1055B000FA681343FB607B681B687A699A607B68B2
:1055C0001B683A699A617B681B68FA681A627B6893
:1055D000012283F846207B68012283F83E207B6805
:1055E000012283F83F207B68012283F842207B68F8
:1055F000012283F843207B68012283F83D200023A9
:1056000018461837BD4680BD80B584B000AF7860BD
:1056100039607B6893F83E30FB737B6893F83F30CA
:10562000BB737B6893F842307B737B6893F843309D
:105630003B733B68002B10D1FB7B012B02D17B7BA2
:10564000012B01D0012369E07B68022283F83E2010
:105650007B68022283F8422031E03B68042B10D1A2
:10566000BB7B012B02D13B7B012B01D0012355E0F9
:105670007B68022283F83F207B68022283F8432064
:105680001DE0FB7B012B08D1BB7B012B05D17B7B74
:10569000012B02D13B7B012B01D001233EE07B6833
:1056A000022283F83E207B68022283F83F207B6839
:1056B000022283F842207B68022283F843203B6861
:1056C000002B03D03B68042B08D00FE07B681B68DD
:1056D00001220021184600F057FD16E07B681B6888
:1056E00001220421184600F04FFD0EE07B681B6884
:1056F00001220021184600F047FD7B681B6801224B
:105700000421184600F040FD00BF7B681B681A6842
:105710007B681B6842F001021A60002318461037AC
:10572000BD4680BD80B584B000AF78607B681B68E3
:10573000DB68FB607B681B681B69BB60BB6803F0B0
:105740000203002B20D0FB6803F00203002B1BD0C8
:105750007B681B686FF002021A617B6801221A776E
:105760007B681B689B6903F00303002B03D07868F8
:1057700000F063FA05E0786800F056FA786800F007
:1057800065FA7B6800221A77BB6803F00403002BDC
:1057900020D0FB6803F00403002B1BD07B681B6840
:1057A0006FF004021A617B6802221A777B681B681B
:1057B0009B6903F44073002B03D0786800F03DFA36
:1057C00005E0786800F030FA786800F03FFA7B680E
:1057D00000221A77BB6803F00803002B20D0FB6877
:1057E00003F00803002B1BD07B681B686FF00802D6
:1057F0001A617B6804221A777B681B68DB6903F0F7
:105800000303002B03D0786800F017FA05E07868EE
:1058100000F00AFA786800F019FA7B6800221A771B
:10582000BB6803F01003002B20D0FB6803F01003CB
:10583000002B1BD07B681B686FF010021A617B681D
:1058400008221A777B681B68DB6903F44073002B1E
:1058500003D0786800F0F1F905E0786800F0E4F929
:10586000786800F0F3F97B6800221A77BB6803F0D0
:105870000103002B0CD0FB6803F00103002B07D0C1
:105880007B681B686FF001021A61786800F0C3F949
:10589000BB6803F08003002B0CD0FB6803F080038F
:1058A000002B07D07B681B686FF080021A61786854
:1058B00000F046FDBB6803F04003002B0CD0FB68F2
:1058C00003F04003002B07D07B681B686FF0400299
:1058D0001A61786800F0C3F9BB6803F02003002B5D
:1058E0000CD0FB6803F02003002B07D07B681B68FB
:1058F0006FF020021A61786800F019FD00BF1037C0
:10590000BD4680BD80B586B000AFF860B9607A60F2
:105910000023FB75FB6893F83C30012B01D1022377
:10592000AEE0FB68012283F83C207B680C2B00F280
:105930009F8001A252F823F06D590008715A0008A7
:10594000715A0008715A0008AD590008715A0008D0
:10595000715A0008715A0008EF590008715A00087E
:10596000715A0008715A00082F5A0008FB681B681A
:10597000B968184600F0EAF9FB681B689A69FB6889
:105980001B6842F008029A61FB681B689A69FB6811
:105990001B6822F004029A61FB681B689969BB6866
:1059A0001A69FB681B680A439A6164E0FB681B681C
:1059B000B968184600F030FAFB681B689A69FB6802
:1059C0001B6842F400629A61FB681B689A69FB6875
:1059D0001B6822F480629A61FB681B689969BB6846
:1059E0001B691A02FB681B680A439A6143E0FB6863
:1059F0001B68B968184600F079FAFB681B68DA6919
:105A0000FB681B6842F00802DA61FB681B68DA6910
:105A1000FB681B6822F00402DA61FB681B68D96925
:105A2000BB681A69FB681B680A43DA6123E0FB68FC
:105A30001B68B968184600F0C3FAFB681B68DA698E
:105A4000FB681B6842F40062DA61FB681B68DA6974
:105A5000FB681B6822F48062DA61FB681B68D96905
:105A6000BB681B691A02FB681B680A43DA6102E023
:105A70000123FB7500BFFB68002283F83C20FB7DFF
:105A800018461837BD4680BD80B584B000AF786039
:105A900039600023FB737B6893F83C30012B01D104
:105AA0000223B4E07B68012283F83C207B68022259
:105AB00083F83D207B681B689B68BB60BB6823F054
:105AC0007703BB60BB6823F47F43BB607B681B68C4
:105AD000BA689A603B681B68B3F5005F3ED0B3F5C7
